:1044000055425C0135D0085A8245102431400044A1
:104410003F4000000F930824924210245C012F8338
:104420009F4F184B0024F8233F4010000F930724A0
:10443000924210245C011F83CF430024F923B01261
:104440007A47B01262443B400000B012DC440B9348
:10445000FC27B0120000F93F32D0F000FD3F3040A1
:104460004C4AB0123C455F43B01248457F40400083
:10447000B0124E455F43B01242455E437F400A0092
:10448000B01280484E437F400500B01280485E4322
:104490006F43B01280484E437F400A00B0120E4A6C
:1044A0003E40C8000F43B012D2477F400600B01212
:1044B00098457F404400B01298456F42B01298452D
:1044C0007F42B01298453E40C8000F43B012D24719
:1044D0005E437F400A00B0120E4A30417F40050023
:1044E000B012E0490F9329204E437F400A00B012DA
:1044F0000E4A3E4064000F43B012D2474F43B01201
:1045000098453E4064000F43B012D2475E437F405F
:104510000A00B0120E4A5E436F43B0120E4A3E408C
:10452000F4010F43B012D2474E436F43B0120E4A0C
:104530003E40F4010F43B012D2473041B01256450D
:104540003041B012C2453041B012E84530414F4FC2
:10455000B012AA453041F24081FFE005F240A9FFC8
:10456000E1053E4010007F400700B012EA483E409F
:1045700010007F400F00B012EA483E4010007F401C
:104580000E00B012EA48F2400700E605C243E70514
:10459000F2F0FEFFE0053041C24FEE055F42EA0552
:1045A0001FF3FC235F42EC053041D2D3E005C24F3C
:1045B000E6058F104F4FC24FE705F2F0FEFFE00512
:1045C0003041D2D3E0055E42E1057EF0DFFF5F932C
:1045D00003207F402000013C4F434EDFC24EE105E7
:1045E000F2F0FEFFE0053041D2D3E0055F930D24E9
:1045F00005286F930F246F921A20113C5F42E1054A
:104600007FF03F007FD080FF103C5F42E1057FF0EC
:104610003F000B3C5F42E1057FD0C0FF063C5F429C
:10462000E1057FF03F007FD04000C24FE105F2F08E
:10463000FEFFE0053041F2D030004A02F2D00C001B
:104640004402B2F0FEFF6C01B2D00C006C012D42AE
:10465000B2F0F4FF6E01B2F0FDFF02013E404000F7
:104660003F40C9931F83FE231E83FC2303433D5316
:104670000324A2B30201EC23B2F03FFF6C013041EE
:10468000B2401D5A5C0192D300013041F240A5FFB7
:104690002101B2F0F8FF2601C2432001B2F0F8FF79
:1046A0002C011F4226013FF0F8FF1FD3824F260145
:1046B00092B32C01FD27A2B32C01FD275F422001FC
:1046C0007FF0FCFF5FD3C24F2001A2B22C01FD2777
:1046D000B2F0F8FF2C011F4226013FF0F8FF2FD364
:1046E000824F260192B32C01FD27A2B32C01FD2796
:1046F0005F4220017FF0FCFF6FD3C24F2001A2B2C6
:104700002C01FD27B2F0F8FF2C011F4226013FF0DB
:10471000F8FF3FD00300824F260192B32C01FD2702
:10472000A2B32C01FD27F2D003002001A2B22C017C
:10473000FD27B2F0FFBB2401B2F0FFBB2601C2434C
:10474000210182436001B24060006201B2407611F3
:104750006401B24020006601B24033006801B2F04B
:10476000F8FF6E01F240A5FF2101B2F0FEFF30011B
:10477000C2432101B01236463041B240805A5C013A
:10478000B0128C46B0128046B24028960009B2F0B2
:10479000FFE70809B2400096000932D230410D42CD
:1047A00032C203431E4208241F420A24024D021251
:1047B00032C20343824ED404824FD604B240470132
:1047C000E0048243E2041E42CA041F42CC04324188
:1047D00030413B15084E094FB0129E470A4E0B4F11
:1047E000103CB0129E470E8A0F7B0F9303203E9021
:1047F000E8030528385339633A50E8030B6332D095
:1048000018000893EE230993EC23381730414F1515
:104810001E4204241F4206241B4202245D4200243F
:104820004D9304241C420C240D43023C0C430D43C5
:104830000E5C0F6D5D4200244D9303241D420E2437
:10484000023C3D4047010D5B3D90E80304283D508C
:1048500018FC1E530F63824D0224824E0424824FA3
:1048600006241E4208241F420A241E530F63824E50
:104870000824824F0A24B1C0D0000A004B1700134D
:104880001B154F4F5B4F4E4A5D4F7D4A4D932B2476
:104890004D4D5D021C4DBE4A6F4C4A4B7AE34FFAB8
:1048A000CC4F00001F4DE24A1C4DD04A1D4DF44A2A
:1048B0004E9303206E4F4EFA143C6E930520CFFAB0
:1048C00000006F4D4FDB063C6E920920CFFA0000CE
:1048D0006F4D4FFACD4F0000CCDB0000043C6E4F13
:1048E0004EDBCF4E00001A1730413B154F4F5D4F46
:1048F0004E4A5A4F7D4A4A9371244A4A0C4A5C02F6
:104900001B4CE24A1F4CD04A1C4CF44A094E19F386
:104910000324CBDD0000143C694B484D78E349F893
:10492000CB4900002EB303246B4C4BDD053C0B4EF2
:104930002BF206246B4C4BF8CC4B0000CFDD000073
:104940000F4A5F021F4FBE4A3EB0100003246C4F57
:104950004CDD023C6C4F4CCDCF4C00005A021A4A41
:10496000AC4A0A933B240C423CF232C20343B240AD
:10497000522DC0011B42C2012BD3824BC2015D9359
:1049800024246D9313246D9213247D9213247D901F
:10499000100013247D90200012247D9040001224EA
:1049A0007D9080FF12203F400700103C1F430E3CCB
:1049B0002F430C3C3F400300093C2F42073C3F4043
:1049C0000500043C3F400600013C0F430F5A8E1087
:1049D0004E4ECF4E00008243C00102DC38173041FA
:1049E0004F4F5D4F4E4A5F4F7D4A4F930E244F4FBE
:1049F0005F021C4FBE4ACCCD00001F4F064B6E4FCE
:104A00001F434EBD03200F4330410F4330411B1560
:104A10004F4F5C4F4E4A5F4F7D4A4F9315244F4F87
:104A20005F021A4FBE4A6D4A4B4C7BE34DFBCA4DA9
:104A300000001F4FF44A4E9303206E4F4EFB023C82
:0E4A40006E4F4EDCCF4E00001A1730410013AF
:104A4E0000002010084040048004020208400201C9
:104A5E0000100401000000010204081001402004AF
:104A6E00800108040810201020020201802010008E
:104A7E0000060303010603020404080202030300F6
:104A8E0007020200000006060606060703030803D7
:104A9E0004040101010102020201010404040000E8
:104AAE00000000000000E001000000000000000017
:104ABE0000000A020B022A022B024A024B026A0271
:104ACE006B02000006020702260227024602470278
:104ADE006602670200000402050224022502440257
:104AEE004502640265020000020203022202230252
:104AFE00420243026202630200000002010220022F
:0A4B0E002102400241026002610230
:10FF8000FFFFFFFFFFFFFFFFFFFFFFFFFFFFFFFF81
:10FF9000FFFFFFFFFFFFFFFFFFFFFFFFFFFFFFFF71
:10FFA000FFFFFFFFFFFFFFFFFFFFFFFFFFFFFFFF61
:10FFB000FFFFFFFFFFFFFFFFFFFFFFFFFFFFFFFF51
:10FFC0005E445E445E445E445E445E445E445E4421
:10FFD0005E445E445E445E445E445E445E445E4411
:10FFE0005E445E445E445E445E445E445E445E4401
:10FFF0005E440E485E445E445E445E445E4400449B
:0400000300004400B5
:00000001FF
